{
  "_format": "hh-sol-artifact-1",
  "contractName": "NFTMint",
  "sourceName": "contracts/NFTMint.sol",
  "abi": [
    {
      "inputs": [
        {
          "internalType": "string",
          "name": "name",
          "type": "string"
        },
        {
          "internalType": "string",
          "name": "symbol",
          "type": "string"
        },
        {
          "internalType": "uint256",
          "name": "_maxSupply",
          "type": "uint256"
        },
        {
          "internalType": "uint256",
          "name": "_mintPrice",
          "type": "uint256"
        },
        {
          "internalType": "uint256",
          "name": "_walletMintLimit",
          "type": "uint256"
        },
        {
          "internalType": "uint256",
          "name": "_startTime",
          "type": "uint256"
        },
        {
          "internalType": "uint256",
          "name": "_endTime",
          "type": "uint256"
        }
      ],
      "stateMutability": "nonpayable",
      "type": "constructor"
    },
    {
      "inputs": [
        {
          "internalType": "address",
          "name": "sender",
          "type": "address"
        },
        {
          "internalType": "uint256",
          "name": "tokenId",
          "type": "uint256"
        },
        {
          "internalType": "address",
          "name": "owner",
          "type": "address"
        }
      ],
      "name": "ERC721IncorrectOwner",
      "type": "error"
    },
    {
      "inputs": [
        {
          "internalType": "address",
          "name": "operator",
          "type": "address"
        },
        {
          "internalType": "uint256",
          "name": "tokenId",
          "type": "uint256"
        }
      ],
      "name": "ERC721InsufficientApproval",
      "type": "error"
    },
    {
      "inputs": [
        {
          "internalType": "address",
          "name": "approver",
          "type": "address"
        }
      ],
      "name": "ERC721InvalidApprover",
      "type": "error"
    },
    {
      "inputs": [
        {
          "internalType": "address",
          "name": "operator",
          "type": "address"
        }
      ],
      "name": "ERC721InvalidOperator",
      "type": "error"
    },
    {
      "inputs": [
        {
          "internalType": "address",
          "name": "owner",
          "type": "address"
        }
      ],
      "name": "ERC721InvalidOwner",
      "type": "error"
    },
    {
      "inputs": [
        {
          "internalType": "address",
          "name": "receiver",
          "type": "address"
        }
      ],
      "name": "ERC721InvalidReceiver",
      "type": "error"
    },
    {
      "inputs": [
        {
          "internalType": "address",
          "name": "sender",
          "type": "address"
        }
      ],
      "name": "ERC721InvalidSender",
      "type": "error"
    },
    {
      "inputs": [
        {
          "internalType": "uint256",
          "name": "tokenId",
          "type": "uint256"
        }
      ],
      "name": "ERC721NonexistentToken",
      "type": "error"
    },
    {
      "inputs": [
        {
          "internalType": "address",
          "name": "owner",
          "type": "address"
        }
      ],
      "name": "OwnableInvalidOwner",
      "type": "error"
    },
    {
      "inputs": [
        {
          "internalType": "address",
          "name": "account",
          "type": "address"
        }
      ],
      "name": "OwnableUnauthorizedAccount",
      "type": "error"
    },
    {
      "inputs": [],
      "name": "ReentrancyGuardReentrantCall",
      "type": "error"
    },
    {
      "anonymous": false,
      "inputs": [
        {
          "indexed": true,
          "internalType": "address",
          "name": "owner",
          "type": "address"
        },
        {
          "indexed": true,
          "internalType": "address",
          "name": "approved",
          "type": "address"
        },
        {
          "indexed": true,
          "internalType": "uint256",
          "name": "tokenId",
          "type": "uint256"
        }
      ],
      "name": "Approval",
      "type": "event"
    },
    {
      "anonymous": false,
      "inputs": [
        {
          "indexed": true,
          "internalType": "address",
          "name": "owner",
          "type": "address"
        },
        {
          "indexed": true,
          "internalType": "address",
          "name": "operator",
          "type": "address"
        },
        {
          "indexed": false,
          "internalType": "bool",
          "name": "approved",
          "type": "bool"
        }
      ],
      "name": "ApprovalForAll",
      "type": "event"
    },
    {
      "anonymous": false,
      "inputs": [
        {
          "indexed": true,
          "internalType": "address",
          "name": "to",
          "type": "address"
        },
        {
          "indexed": true,
          "internalType": "uint256",
          "name": "tokenId",
          "type": "uint256"
        },
        {
          "indexed": false,
          "internalType": "uint256",
          "name": "price",
          "type": "uint256"
        }
      ],
      "name": "Mint",
      "type": "event"
    },
    {
      "anonymous": false,
      "inputs": [
        {
          "indexed": true,
          "internalType": "address",
          "name": "previousOwner",
          "type": "address"
        },
        {
          "indexed": true,
          "internalType": "address",
          "name": "newOwner",
          "type": "address"
        }
      ],
      "name": "OwnershipTransferred",
      "type": "event"
    },
    {
      "anonymous": false,
      "inputs": [
        {
          "indexed": true,
          "internalType": "address",
          "name": "from",
          "type": "address"
        },
        {
          "indexed": true,
          "internalType": "address",
          "name": "to",
          "type": "address"
        },
        {
          "indexed": true,
          "internalType": "uint256",
          "name": "tokenId",
          "type": "uint256"
        }
      ],
      "name": "Transfer",
      "type": "event"
    },
    {
      "inputs": [
        {
          "internalType": "address",
          "name": "to",
          "type": "address"
        },
        {
          "internalType": "uint256",
          "name": "tokenId",
          "type": "uint256"
        }
      ],
      "name": "approve",
      "outputs": [],
      "stateMutability": "nonpayable",
      "type": "function"
    },
    {
      "inputs": [
        {
          "internalType": "address",
          "name": "owner",
          "type": "address"
        }
      ],
      "name": "balanceOf",
      "outputs": [
        {
          "internalType": "uint256",
          "name": "",
          "type": "uint256"
        }
      ],
      "stateMutability": "view",
      "type": "function"
    },
    {
      "inputs": [],
      "name": "baseURI",
      "outputs": [
        {
          "internalType": "string",
          "name": "",
          "type": "string"
        }
      ],
      "stateMutability": "pure",
      "type": "function"
    },
    {
      "inputs": [],
      "name": "endTime",
      "outputs": [
        {
          "internalType": "uint256",
          "name": "",
          "type": "uint256"
        }
      ],
      "stateMutability": "view",
      "type": "function"
    },
    {
      "inputs": [
        {
          "internalType": "uint256",
          "name": "tokenId",
          "type": "uint256"
        }
      ],
      "name": "getApproved",
      "outputs": [
        {
          "internalType": "address",
          "name": "",
          "type": "address"
        }
      ],
      "stateMutability": "view",
      "type": "function"
    },
    {
      "inputs": [
        {
          "internalType": "address",
          "name": "owner",
          "type": "address"
        },
        {
          "internalType": "address",
          "name": "operator",
          "type": "address"
        }
      ],
      "name": "isApprovedForAll",
      "outputs": [
        {
          "internalType": "bool",
          "name": "",
          "type": "bool"
        }
      ],
      "stateMutability": "view",
      "type": "function"
    },
    {
      "inputs": [],
      "name": "maxSupply",
      "outputs": [
        {
          "internalType": "uint256",
          "name": "",
          "type": "uint256"
        }
      ],
      "stateMutability": "view",
      "type": "function"
    },
    {
      "inputs": [],
      "name": "mintPrice",
      "outputs": [
        {
          "internalType": "uint256",
          "name": "",
          "type": "uint256"
        }
      ],
      "stateMutability": "view",
      "type": "function"
    },
    {
      "inputs": [
        {
          "internalType": "address",
          "name": "",
          "type": "address"
        }
      ],
      "name": "mintedBy",
      "outputs": [
        {
          "internalType": "uint256",
          "name": "",
          "type": "uint256"
        }
      ],
      "stateMutability": "view",
      "type": "function"
    },
    {
      "inputs": [],
      "name": "mintingActive",
      "outputs": [
        {
          "internalType": "bool",
          "name": "",
          "type": "bool"
        }
      ],
      "stateMutability": "view",
      "type": "function"
    },
    {
      "inputs": [],
      "name": "name",
      "outputs": [
        {
          "internalType": "string",
          "name": "",
          "type": "string"
        }
      ],
      "stateMutability": "view",
      "type": "function"
    },
    {
      "inputs": [],
      "name": "owner",
      "outputs": [
        {
          "internalType": "address",
          "name": "",
          "type": "address"
        }
      ],
      "stateMutability": "view",
      "type": "function"
    },
    {
      "inputs": [
        {
          "internalType": "uint256",
          "name": "tokenId",
          "type": "uint256"
        }
      ],
      "name": "ownerOf",
      "outputs": [
        {
          "internalType": "address",
          "name": "",
          "type": "address"
        }
      ],
      "stateMutability": "view",
      "type": "function"
    },
    {
      "inputs": [],
      "name": "renounceOwnership",
      "outputs": [],
      "stateMutability": "nonpayable",
      "type": "function"
    },
    {
      "inputs": [
        {
          "internalType": "address",
          "name": "to",
          "type": "address"
        }
      ],
      "name": "safeMint",
      "outputs": [],
      "stateMutability": "payable",
      "type": "function"
    },
    {
      "inputs": [
        {
          "internalType": "address",
          "name": "from",
          "type": "address"
        },
        {
          "internalType": "address",
          "name": "to",
          "type": "address"
        },
        {
          "internalType": "uint256",
          "name": "tokenId",
          "type": "uint256"
        }
      ],
      "name": "safeTransferFrom",
      "outputs": [],
      "stateMutability": "nonpayable",
      "type": "function"
    },
    {
      "inputs": [
        {
          "internalType": "address",
          "name": "from",
          "type": "address"
        },
        {
          "internalType": "address",
          "name": "to",
          "type": "address"
        },
        {
          "internalType": "uint256",
          "name": "tokenId",
          "type": "uint256"
        },
        {
          "internalType": "bytes",
          "name": "data",
          "type": "bytes"
        }
      ],
      "name": "safeTransferFrom",
      "outputs": [],
      "stateMutability": "nonpayable",
      "type": "function"
    },
    {
      "inputs": [
        {
          "internalType": "address",
          "name": "operator",
          "type": "address"
        },
        {
          "internalType": "bool",
          "name": "approved",
          "type": "bool"
        }
      ],
      "name": "setApprovalForAll",
      "outputs": [],
      "stateMutability": "nonpayable",
      "type": "function"
    },
    {
      "inputs": [
        {
          "internalType": "uint256",
          "name": "_startTime",
          "type": "uint256"
        },
        {
          "internalType": "uint256",
          "name": "_endTime",
          "type": "uint256"
        }
      ],
      "name": "setMintPeriod",
      "outputs": [],
      "stateMutability": "nonpayable",
      "type": "function"
    },
    {
      "inputs": [
        {
          "internalType": "uint256",
          "name": "_price",
          "type": "uint256"
        }
      ],
      "name": "setMintPrice",
      "outputs": [],
      "stateMutability": "nonpayable",
      "type": "function"
    },
    {
      "inputs": [
        {
          "internalType": "bool",
          "name": "_active",
          "type": "bool"
        }
      ],
      "name": "setMintingActive",
      "outputs": [],
      "stateMutability": "nonpayable",
      "type": "function"
    },
    {
      "inputs": [
        {
          "internalType": "uint256",
          "name": "_limit",
          "type": "uint256"
        }
      ],
      "name": "setWalletMintLimit",
      "outputs": [],
      "stateMutability": "nonpayable",
      "type": "function"
    },
    {
      "inputs": [],
      "name": "startTime",
      "outputs": [
        {
          "internalType": "uint256",
          "name": "",
          "type": "uint256"
        }
      ],
      "stateMutability": "view",
      "type": "function"
    },
    {
      "inputs": [
        {
          "internalType": "bytes4",
          "name": "interfaceId",
          "type": "bytes4"
        }
      ],
      "name": "supportsInterface",
      "outputs": [
        {
          "internalType": "bool",
          "name": "",
          "type": "bool"
        }
      ],
      "stateMutability": "view",
      "type": "function"
    },
    {
      "inputs": [],
      "name": "symbol",
      "outputs": [
        {
          "internalType": "string",
          "name": "",
          "type": "string"
        }
      ],
      "stateMutability": "view",
      "type": "function"
    },
    {
      "inputs": [
        {
          "internalType": "uint256",
          "name": "tokenId",
          "type": "uint256"
        }
      ],
      "name": "tokenURI",
      "outputs": [
        {
          "internalType": "string",
          "name": "",
          "type": "string"
        }
      ],
      "stateMutability": "view",
      "type": "function"
    },
    {
      "inputs": [],
      "name": "totalSupply",
      "outputs": [
        {
          "internalType": "uint256",
          "name": "",
          "type": "uint256"
        }
      ],
      "stateMutability": "view",
      "type": "function"
    },
    {
      "inputs": [
        {
          "internalType": "address",
          "name": "from",
          "type": "address"
        },
        {
          "internalType": "address",
          "name": "to",
          "type": "address"
        },
        {
          "internalType": "uint256",
          "name": "tokenId",
          "type": "uint256"
        }
      ],
      "name": "transferFrom",
      "outputs": [],
      "stateMutability": "nonpayable",
      "type": "function"
    },
    {
      "inputs": [
        {
          "internalType": "address",
          "name": "newOwner",
          "type": "address"
        }
      ],
      "name": "transferOwnership",
      "outputs": [],
      "stateMutability": "nonpayable",
      "type": "function"
    },
    {
      "inputs": [],
      "name": "walletMintLimit",
      "outputs": [
        {
          "internalType": "uint256",
          "name": "",
          "type": "uint256"
        }
      ],
      "stateMutability": "view",
      "type": "function"
    },
    {
      "inputs": [],
      "name": "withdraw",
      "outputs": [],
      "stateMutability": "nonpayable",
      "type": "function"
    }
  ],
  "bytecode": "0x608060405260016008553480156200001657600080fd5b5060405162001bf538038062001bf58339810160408190526200003991620001e3565b33878760006200004a83826200030b565b5060016200005982826200030b565b5050506001600160a01b0381166200008b57604051631e4fbdf760e01b81526000600482015260240160405180910390fd5b6200009681620000cc565b5060016007819055600995909555600a93909355600b91909155600c55600d55600e805460ff1916909117905550620003d79050565b600680546001600160a01b038381166001600160a01b0319831681179093556040519116919082907f8be0079c531659141344cd1fd0a4f28419497f9722a3daafe3b4186f6b6457e090600090a35050565b634e487b7160e01b600052604160045260246000fd5b600082601f8301126200014657600080fd5b81516001600160401b03808211156200016357620001636200011e565b604051601f8301601f19908116603f011681019082821181831017156200018e576200018e6200011e565b81604052838152602092508683858801011115620001ab57600080fd5b600091505b83821015620001cf5785820183015181830184015290820190620001b0565b600093810190920192909252949350505050565b600080600080600080600060e0888a031215620001ff57600080fd5b87516001600160401b03808211156200021757600080fd5b620002258b838c0162000134565b985060208a01519150808211156200023c57600080fd5b506200024b8a828b0162000134565b60408a015160608b015160808c015160a08d015160c0909d01519b9e939d50919b909a919950975095509350505050565b600181811c908216806200029157607f821691505b602082108103620002b257634e487b7160e01b600052602260045260246000fd5b50919050565b601f8211156200030657600081815260208120601f850160051c81016020861015620002e15750805b601f850160051c820191505b818110156200030257828155600101620002ed565b5050505b505050565b81516001600160401b038111156200032757620003276200011e565b6200033f816200033884546200027c565b84620002b8565b602080601f8311600181146200037757600084156200035e5750858301515b600019600386901b1c1916600185901b17855562000302565b600085815260208120601f198616915b82811015620003a85788860151825594840194600190910190840162000387565b5085821015620003c75787850151600019600388901b60f8161c191681555b5050505050600190811b01905550565b61180e80620003e76000396000f3fe6080604052600436106101d85760003560e01c806370517ed411610102578063a22cb46511610095578063d5abeb0111610064578063d5abeb0114610515578063e985e9c51461052b578063f2fde38b1461054b578063f4a0a5281461056b57600080fd5b8063a22cb46514610495578063b88d4fde146104b5578063c87b56dd146104d5578063d04ef285146104f557600080fd5b806377325d7a116100d157806377325d7a1461042c57806378e979251461044c5780638da5cb5b1461046257806395d89b411461048057600080fd5b806370517ed4146103c157806370a08231146103e1578063715018a61461040157806374c285611461041657600080fd5b806331f9c9191161017a57806342842e0e1161014957806342842e0e146103565780636352211e146103765780636817c76c146103965780636c0360eb146103ac57600080fd5b806331f9c919146102e75780633ccfd60b146103015780633cef28d21461031657806340d097c31461034357600080fd5b8063095ea7b3116101b6578063095ea7b31461026c57806318160ddd1461028e57806323b872dd146102b15780633197cbb6146102d157600080fd5b806301ffc9a7146101dd57806306fdde0314610212578063081812fc14610234575b600080fd5b3480156101e957600080fd5b506101fd6101f8366004611370565b61058b565b60405190151581526020015b60405180910390f35b34801561021e57600080fd5b506102276105dd565b60405161020991906113e4565b34801561024057600080fd5b5061025461024f3660046113f7565b61066f565b6040516001600160a01b039091168152602001610209565b34801561027857600080fd5b5061028c61028736600461142c565b610698565b005b34801561029a57600080fd5b506102a36106a7565b604051908152602001610209565b3480156102bd57600080fd5b5061028c6102cc366004611456565b6106bd565b3480156102dd57600080fd5b506102a3600d5481565b3480156102f357600080fd5b50600e546101fd9060ff1681565b34801561030d57600080fd5b5061028c61074d565b34801561032257600080fd5b506102a3610331366004611492565b600f6020526000908152604090205481565b61028c610351366004611492565b6107a0565b34801561036257600080fd5b5061028c610371366004611456565b610a6d565b34801561038257600080fd5b506102546103913660046113f7565b610a8d565b3480156103a257600080fd5b506102a3600a5481565b3480156103b857600080fd5b50610227610a98565b3480156103cd57600080fd5b5061028c6103dc3660046113f7565b610ab8565b3480156103ed57600080fd5b506102a36103fc366004611492565b610ac5565b34801561040d57600080fd5b5061028c610b0d565b34801561042257600080fd5b506102a3600b5481565b34801561043857600080fd5b5061028c6104473660046114ad565b610b21565b34801561045857600080fd5b506102a3600c5481565b34801561046e57600080fd5b506006546001600160a01b0316610254565b34801561048c57600080fd5b50610227610b34565b3480156104a157600080fd5b5061028c6104b03660046114df565b610b43565b3480156104c157600080fd5b5061028c6104d0366004611528565b610b4e565b3480156104e157600080fd5b506102276104f03660046113f7565b610b66565b34801561050157600080fd5b5061028c610510366004611604565b610baa565b34801561052157600080fd5b506102a360095481565b34801561053757600080fd5b506101fd61054636600461161f565b610bc5565b34801561055757600080fd5b5061028c610566366004611492565b610bf3565b34801561057757600080fd5b5061028c6105863660046113f7565b610c2e565b60006001600160e01b031982166380ac58cd60e01b14806105bc57506001600160e01b03198216635b5e139f60e01b145b806105d757506301ffc9a760e01b6001600160e01b03198316145b92915050565b6060600080546105ec90611649565b80601f016020809104026020016040519081016040528092919081815260200182805461061890611649565b80156106655780601f1061063a57610100808354040283529160200191610665565b820191906000526020600020905b81548152906001019060200180831161064857829003601f168201915b5050505050905090565b600061067a82610c3b565b506000828152600460205260409020546001600160a01b03166105d7565b6106a3828233610c74565b5050565b600060016008546106b89190611699565b905090565b6001600160a01b0382166106ec57604051633250574960e11b8152600060048201526024015b60405180910390fd5b60006106f9838333610c81565b9050836001600160a01b0316816001600160a01b031614610747576040516364283d7b60e01b81526001600160a01b03808616600483015260248201849052821660448201526064016106e3565b50505050565b610755610d7a565b476107686006546001600160a01b031690565b6001600160a01b03166108fc829081150290604051600060405180830381858888f193505050501580156106a3573d6000803e3d6000fd5b6107a8610da7565b600e5460ff166107f25760405162461bcd60e51b81526020600482015260156024820152744d696e74696e67206973206e6f742061637469766560581b60448201526064016106e3565b600c544210156108445760405162461bcd60e51b815260206004820152601760248201527f4d696e74696e6720686173206e6f74207374617274656400000000000000000060448201526064016106e3565b600d5442111561088a5760405162461bcd60e51b8152602060048201526011602482015270135a5b9d1a5b99c81a185cc8195b991959607a1b60448201526064016106e3565b6009546108956106a7565b106108d75760405162461bcd60e51b815260206004820152601260248201527113585e081cdd5c1c1b1e481c995858da195960721b60448201526064016106e3565b600b546001600160a01b0382166000908152600f6020526040902054106109375760405162461bcd60e51b815260206004820152601460248201527315d85b1b195d081b1a5b5a5d081c995858da195960621b60448201526064016106e3565b600a543410156109805760405162461bcd60e51b8152602060048201526014602482015273125b9cdd59999a58da595b9d081c185e5b595b9d60621b60448201526064016106e3565b6008805460009182610991836116ac565b9190505590506109a18282610dd1565b6001600160a01b0382166000908152600f602052604081208054916109c5836116ac565b9190505550600a54341115610a1957816001600160a01b03166108fc600a54346109ef9190611699565b6040518115909202916000818181858888f19350505050158015610a17573d6000803e3d6000fd5b505b80826001600160a01b03167f4c209b5fc8ad50758f13e2e1088ba56a560dff690a1c6fef26394f4c03821c4f600a54604051610a5791815260200190565b60405180910390a350610a6a6001600755565b50565b610a8883838360405180602001604052806000815250610b4e565b505050565b60006105d782610c3b565b60606040518060600160405280602381526020016117b660239139905090565b610ac0610d7a565b600b55565b60006001600160a01b038216610af1576040516322718ad960e21b8152600060048201526024016106e3565b506001600160a01b031660009081526003602052604090205490565b610b15610d7a565b610b1f6000610deb565b565b610b29610d7a565b600c91909155600d55565b6060600180546105ec90611649565b6106a3338383610e3d565b610b598484846106bd565b6107473385858585610edc565b6060610b7182610c3b565b50610b7a610a98565b610b8383611007565b604051602001610b949291906116c5565b6040516020818303038152906040529050919050565b610bb2610d7a565b600e805460ff1916911515919091179055565b6001600160a01b03918216600090815260056020908152604080832093909416825291909152205460ff1690565b610bfb610d7a565b6001600160a01b038116610c2557604051631e4fbdf760e01b8152600060048201526024016106e3565b610a6a81610deb565b610c36610d7a565b600a55565b6000818152600260205260408120546001600160a01b0316806105d757604051637e27328960e01b8152600481018490526024016106e3565b610a888383836001611110565b6000828152600260205260408120546001600160a01b0390811690831615610cae57610cae818486611216565b6001600160a01b03811615610cec57610ccb600085600080611110565b6001600160a01b038116600090815260036020526040902080546000190190555b6001600160a01b03851615610d1b576001600160a01b0385166000908152600360205260409020805460010190555b60008481526002602052604080822080546001600160a01b0319166001600160a01b0389811691821790925591518793918516917fddf252ad1be2c89b69c2b068fc378daa952ba7f163c4a11628f55a4df523b3ef91a4949350505050565b6006546001600160a01b03163314610b1f5760405163118cdaa760e01b81523360048201526024016106e3565b600260075403610dca57604051633ee5aeb560e01b815260040160405180910390fd5b6002600755565b6106a382826040518060200160405280600081525061127a565b600680546001600160a01b038381166001600160a01b0319831681179093556040519116919082907f8be0079c531659141344cd1fd0a4f28419497f9722a3daafe3b4186f6b6457e090600090a35050565b6001600160a01b038216610e6f57604051630b61174360e31b81526001600160a01b03831660048201526024016106e3565b6001600160a01b03838116600081815260056020908152604080832094871680845294825291829020805460ff191686151590811790915591519182527f17307eab39ab6107e8899845ad3d59bd9653f200f220920489ca2b5937696c31910160405180910390a3505050565b6001600160a01b0383163b1561100057604051630a85bd0160e11b81526001600160a01b0384169063150b7a0290610f1e9088908890879087906004016116f4565b6020604051808303816000875af1925050508015610f59575060408051601f3d908101601f19168201909252610f5691810190611731565b60015b610fc2573d808015610f87576040519150601f19603f3d011682016040523d82523d6000602084013e610f8c565b606091505b508051600003610fba57604051633250574960e11b81526001600160a01b03851660048201526024016106e3565b805160208201fd5b6001600160e01b03198116630a85bd0160e11b14610ffe57604051633250574960e11b81526001600160a01b03851660048201526024016106e3565b505b5050505050565b60608160000361102e5750506040805180820190915260018152600360fc1b602082015290565b8160005b81156110585780611042816116ac565b91506110519050600a83611764565b9150611032565b60008167ffffffffffffffff81111561107357611073611512565b6040519080825280601f01601f19166020018201604052801561109d576020820181803683370190505b5090505b8415611108576110b2600183611699565b91506110bf600a86611778565b6110ca90603061178c565b60f81b8183815181106110df576110df61179f565b60200101906001600160f81b031916908160001a905350611101600a86611764565b94506110a1565b949350505050565b808061112457506001600160a01b03821615155b156111e657600061113484610c3b565b90506001600160a01b038316158015906111605750826001600160a01b0316816001600160a01b031614155b801561117357506111718184610bc5565b155b1561119c5760405163a9fbf51f60e01b81526001600160a01b03841660048201526024016106e3565b81156111e45783856001600160a01b0316826001600160a01b03167f8c5be1e5ebec7d5bd14f71427d1e84f3dd0314c0f7b2291e5b200ac8c7c3b92560405160405180910390a45b505b5050600090815260046020526040902080546001600160a01b0319166001600160a01b0392909216919091179055565b611221838383611292565b610a88576001600160a01b03831661124f57604051637e27328960e01b8152600481018290526024016106e3565b60405163177e802f60e01b81526001600160a01b0383166004820152602481018290526044016106e3565b61128483836112f5565b610a88336000858585610edc565b60006001600160a01b038316158015906111085750826001600160a01b0316846001600160a01b031614806112cc57506112cc8484610bc5565b806111085750506000908152600460205260409020546001600160a01b03908116911614919050565b6001600160a01b03821661131f57604051633250574960e11b8152600060048201526024016106e3565b600061132d83836000610c81565b90506001600160a01b03811615610a88576040516339e3563760e11b8152600060048201526024016106e3565b6001600160e01b031981168114610a6a57600080fd5b60006020828403121561138257600080fd5b813561138d8161135a565b9392505050565b60005b838110156113af578181015183820152602001611397565b50506000910152565b600081518084526113d0816020860160208601611394565b601f01601f19169290920160200192915050565b60208152600061138d60208301846113b8565b60006020828403121561140957600080fd5b5035919050565b80356001600160a01b038116811461142757600080fd5b919050565b6000806040838503121561143f57600080fd5b61144883611410565b946020939093013593505050565b60008060006060848603121561146b57600080fd5b61147484611410565b925061148260208501611410565b9150604084013590509250925092565b6000602082840312156114a457600080fd5b61138d82611410565b600080604083850312156114c057600080fd5b50508035926020909101359150565b8035801515811461142757600080fd5b600080604083850312156114f257600080fd5b6114fb83611410565b9150611509602084016114cf565b90509250929050565b634e487b7160e01b600052604160045260246000fd5b6000806000806080858703121561153e57600080fd5b61154785611410565b935061155560208601611410565b925060408501359150606085013567ffffffffffffffff8082111561157957600080fd5b818701915087601f83011261158d57600080fd5b81358181111561159f5761159f611512565b604051601f8201601f19908116603f011681019083821181831017156115c7576115c7611512565b816040528281528a60208487010111156115e057600080fd5b82602086016020830137600060208483010152809550505050505092959194509250565b60006020828403121561161657600080fd5b61138d826114cf565b6000806040838503121561163257600080fd5b61163b83611410565b915061150960208401611410565b600181811c9082168061165d57607f821691505b60208210810361167d57634e487b7160e01b600052602260045260246000fd5b50919050565b634e487b7160e01b600052601160045260246000fd5b818103818111156105d7576105d7611683565b6000600182016116be576116be611683565b5060010190565b600083516116d7818460208801611394565b8351908301906116eb818360208801611394565b01949350505050565b6001600160a01b0385811682528416602082015260408101839052608060608201819052600090611727908301846113b8565b9695505050505050565b60006020828403121561174357600080fd5b815161138d8161135a565b634e487b7160e01b600052601260045260246000fd5b6000826117735761177361174e565b500490565b6000826117875761178761174e565b500690565b808201808211156105d7576105d7611683565b634e487b7160e01b600052603260045260246000fdfe687474703a2f2f6c6f63616c686f73743a333030302f6170692f6d657461646174612fa26469706673582212202b7c17fc8cee76e3bfbd4bcb7b5d97a3804c8a5c31dc4f87c668282dc23d9df064736f6c63430008140033",
  "linkReferences": {},
  "deployedLinkReferences": {}
}